:020000040000FA
:100000000C945D000C9485000C9485000C94850084
:100010000C9485000C9485000C9485000C9485004C
:100020000C9485000C9485000C9485000C9485003C
:100030000C9485000C9485000C9485000C9485002C
:100040000C9477040C9485000C9445040C941F04C4
:100050000C9485000C9485000C9485000C9485000C
:100060000C9485000C9485000000000024002700FB
:100070002A0000000000250028002B0004040404CE
:100080000404040402020202020203030303030342
:10009000010204081020408001020408102001021F
:1000A00004081020000000080002010000030407FB
:1000B0000000000000000000C10411241FBECFEFAB
:1000C000D8E0DEBFCDBF11E0A0E0B1E0EEE7F2E1A5
:1000D00002C005900D92A036B107D9F722E0A0E644
:1000E000B1E001C01D92A432B207E1F710E0CDE506
:1000F000D0E004C02197FE010E943709CC35D1071A
:10010000C9F70E940B050C943D090C940000AF92B6
:10011000BF92CF92DF92EF92FF920F931F93CF93F4
:10012000DF936C017B018B01040F151FEB015E0156
:10013000AE18BF08C017D10759F06991D601ED91EB
:10014000FC910190F081E02DC6010995892B79F78A
:10015000C501DF91CF911F910F91FF90EF90DF903C
:10016000CF90BF90AF900895FC01538D448D252F03
:1001700030E0842F90E0821B930B541710F0CF9641
:10018000089501970895FC01918D828D981761F073
:10019000A28DAE0FBF2FB11D5D968C91928D9F5F8A
:1001A0009F73928F90E008958FEF9FEF0895FC0169
:1001B000918D828D981731F0828DE80FF11D858D1C
:1001C00090E008958FEF9FEF0895FC01918D228DAF
:1001D000892F90E0805C9F4F821B91098F73992734
:1001E00008958FE691E00E94E50021E0892B09F453
:1001F00020E0822F089580E090E0892B29F00E9472
:10020000F10081110C9400000895FC01A48DA80F49
:10021000B92FB11DA35ABF4F2C91848D90E0019648
:100220008F739927848FA689B7892C93A089B18968
:100230008C91837080648C93938D848D981306C009
:100240000288F389E02D80818F7D80830895EF926D
:10025000FF920F931F93CF93DF93EC0181E0888F80
:100260009B8D8C8D98131AC0E889F989808185FF50
:1002700015C09FB7F894EE89FF896083E889F989F2
:1002800080818370806480839FBF81E090E0DF91F4
:10029000CF911F910F91FF90EF900895F62E0B8D47
:1002A00010E00F5F1F4F0F731127E02E8C8D8E1102
:1002B0000CC00FB607FCFACFE889F989808185FF69
:1002C000F5CFCE010E940501F1CFEB8DEC0FFD2F94
:1002D000F11DE35AFF4FF0829FB7F8940B8FEA8924
:1002E000FB8980818062CFCFCF93DF93EC01888D33
:1002F0008823B9F0AA89BB89E889F9898C9185FDA1
:1003000003C0808186FD0DC00FB607FCF7CF8C912E
:1003100085FFF2CF808185FFEDCFCE010E940501E0
:10032000E9CFDF91CF91089590E0FC01EC55FF4FAC
:100330002491FC01E057FF4F3491FC01E458FF4F3A
:10034000E491EE23C9F0222339F0233001F1A8F41F
:10035000213019F1223029F1F0E0EE0FFF1FEE58A5
:10036000FF4FA591B4918FB7F894EC91611126C01D
:1003700030953E233C938FBF08952730A9F0283055
:10038000C9F0243049F7809180008F7D03C08091AF
:1003900080008F7780938000DFCF84B58F7784BD16
:1003A000DBCF84B58F7DFBCF8091B0008F778093BA
:1003B000B000D2CF8091B0008F7DF9CF3E2BDACF45
:1003C000CF93DF9390E0FC01E057FF4F24918458D6
:1003D0009F4FFC0184918823D1F090E0880F991FF2
:1003E000FC01E859FF4FA591B491FC01EE58FF4F75
:1003F000C591D49161110EC09FB7F8948C91E22FF2
:10040000E0958E238C932881E223E8839FBFDF91C0
:10041000CF9108958FB7F894EC91E22BEC938FBFB6
:10042000F6CF3FB7F8948091650190916601A09155
:100430006701B091680126B5A89B05C02F3F19F050
:100440000196A11DB11D3FBFBA2FA92F982F882754
:10045000BC01CD01620F711D811D911D42E0660F2F
:10046000771F881F991F4A95D1F708958F929F9201
:10047000AF92BF92CF92DF92EF92FF920E94110251
:100480004B015C0184E6C82ED12CE12CF12C0E949A
:100490001102681979098A099B09683E7340810530
:1004A0009105A8F321E0C21AD108E108F10888EE0D
:1004B000880E83E0981EA11CB11CC114D104E10474
:1004C000F10429F7FF90EF90DF90CF90BF90AF90AD
:1004D0009F908F900895089590E080E00895FC012A
:1004E00001900020E9F73197AF01481B590BBC017F
:1004F0008CE092E00C9487008F929F92AF92BF9213
:100500000F931F93CF93DF93CDB7DEB7A1970FB6AD
:10051000F894DEBF0FBECDBF19A2423008F44AE006
:100520008E010F5D1F4F842E912CB12CA12CA501A3
:1005300094010E941509E62FB901CA01EA30F4F4CA
:10054000E05DD801EE938D01232B242B252B79F729
:1005500090E080E0109719F0CD010E946F02A19603
:100560000FB6F894DEBF0FBECDBFDF91CF911F91C4
:100570000F91BF90AF909F908F900895E95CE1CF6D
:10058000CF93DF93EC0160E08E810E94940161E0E3
:100590008E810E94940160E08E810E9494018BE81C
:1005A00091E00197F1F7DF91CF910895CF92DF921B
:1005B000EF92FF920F931F93CF93DF936C017C0117
:1005C00087E0E80EF11CD0E0C0E0062F10E0B80193
:1005D0000C2E02C0759567950A94E2F76170F701D9
:1005E00081917F010E9494012196C430D10579F751
:1005F000C601DF91CF911F910F91FF90EF90DF9097
:10060000CF900C94C002CF92DF92EF92FF920F93A3
:100610001F93CF93DF93EC01F62E642F8C810E9401
:1006200094018D818F3F19F060E00E9494010F2D9D
:1006300010E08F8584FF25C06E0187E0C80ED11CB5
:10064000F12CE12CB8010E2C02C0759567950A9427
:10065000E2F76170F60181916F010E949401FFEF52
:10066000EF1AFF0A88E0E816F10461F7CE01DF9186
:10067000CF911F910F91FF90EF90DF90CF900C944E
:10068000C002B80184E0759567958A95E1F7CE01BF
:100690000E94D6026F2DCE01DF91CF911F910F9155
:1006A000FF90EF90DF90CF900C94D60240E0682F3F
:1006B0008CE092E00C940303CF93DF93823029F413
:1006C00090911B02986090931B0280931F021092DE
:1006D000200280E48093210280E18093220280E561
:1006E0008093230261E0809110020E94E0018091DA
:1006F00011028F3F19F061E00E94E00161E08091FA
:1007000012020E94E001CCE0D2E09E012C50324067
:1007100080911B0284FD0BC084E090E02196281795
:10072000390744F461E08E810E94E001EECF88E059
:1007300090E0F4CF8BE39DE00197F1F760E08091CA
:1007400010020E94940160E0809112020E949401C4
:10075000809111028F3F19F060E00E949401809116
:100760001B0284FD39C063E08CE092E00E94D60257
:10077000CBE4D6E4CE010197F1F763E08CE092E0A0
:100780000E94D6022197F1F763E08CE092E00E948C
:10079000D60283E592E00197F1F762E08CE092E007
:1007A0000E94D60280911B0280620E94560384E060
:1007B00080931C028CE00E94560381E00E94560345
:1007C0008BE39FE10197F1F782E080931D0286E0C1
:1007D000DF91CF910C94560380620E9456038BE404
:1007E00096E40197F1F780911B0280620E94560304
:1007F00083E592E00197F1F780911B0280620E94ED
:100800005603D0CF90911F02891710F08FEF890FF8
:10081000E82FF0E0E45FFD4F848980680C94560374
:1008200041E00E94030381E090E0089541E0682FD9
:100830008CE092E00E94030381E090E008951F9213
:100840000F920FB60F9211242F933F934F935F9304
:100850006F937F938F939F93AF93BF93EF93FF9388
:100860008FE691E00E940501FF91EF91BF91AF915A
:100870009F918F917F916F915F914F913F912F91B8
:100880000F900FBE0F901F9018951F920F920FB6EA
:100890000F9211242F938F939F93EF93FF93E091E7
:1008A0007F01F09180018081E0918501F0918601C6
:1008B00082FD1BC09081809188018F5F8F73209192
:1008C0008901821741F0E0918801F0E0E159FE4F83
:1008D000958F80938801FF91EF919F918F912F9138
:1008E0000F900FBE0F901F9018958081F4CF1F922C
:1008F0000F920FB60F9211242F933F938F939F93D4
:10090000AF93BF938091610190916201A0916301C7
:10091000B09164013091600123E0230F2D3758F529
:100920000196A11DB11D20936001809361019093F8
:100930006201A0936301B09364018091650190917D
:100940006601A0916701B09168010196A11DB11DDA
:100950008093650190936601A0936701B09368014D
:10096000BF91AF919F918F913F912F910F900FBEAB
:100970000F901F90189526E8230F0296A11DB11D18
:10098000D2CFEFE6F1E01382128288EE93E0A0E08E
:10099000B0E084839583A683B78384E091E091835C
:1009A000808385EC90E09587848784EC90E097873E
:1009B000868780EC90E0918B808B81EC90E0938B2C
:1009C000828B82EC90E0958B848B86EC90E0978B09
:1009D000868B118E128E138E148EECE0F2E0138251
:1009E000128286E191E09183808389E084838FEF96
:1009F000858388E0868385E0878384E0808783E041
:100A0000818782E08287138614861586168617866C
:100A100081E00C945C03789484B5826084BD84B5D5
:100A2000816084BD85B5826085BD85B5816085BDE9
:100A300080916E00816080936E00109281008091A1
:100A40008100826080938100809181008160809329
:100A50008100809180008160809380008091B1004E
:100A600084608093B1008091B00081608093B00079
:100A700080917A00846080937A0080917A0082600D
:100A800080937A0080917A00816080937A008091CF
:100A90007A00806880937A001092C100E0917F0113
:100AA000F091800182E08083E0917B01F0917C01F4
:100AB0001082E0917D01F0917E018FEC8083109295
:100AC0008701E0918301F091840186E08083E091C9
:100AD0008101F0918201808180618083E0918101B8
:100AE000F0918201808188608083E0918101F091A2
:100AF0008201808180688083E0918101F091820190
:100B000080818F7D808360E08FE00E94E00182E041
:100B10000E945C0380E00E9402048EE191E00E944A
:100B20006F0281E00E94020489E391E00E946F025B
:100B30000E94360281E00E9456038BE39FE10197F9
:100B4000F1F711E4C0E0D0E010937C0080917A00CE
:100B5000806480937A0080917A0086FDFCCF80913A
:100B6000780060917900762F682F072E000C880B93
:100B7000990B0E94EE0720E030EC4FE754E40E940E
:100B8000440720E030E040EA50E40E94A30820E05F
:100B900030E048EC52E40E94A3080E94B60770932C
:100BA0006E0160936D01072E000C880B990B0E945B
:100BB000EE0726E636E646EE5FE30E94A30820E055
:100BC00030E040E052E40E94D306609369017093E4
:100BD0006A0180936B0190936C0180E00E94020493
:100BE00088E491E00E946F02C0906D01D0906E0188
:100BF0000D2C000CEE08FF084AE0C701B601F7FE15
:100C00000BC08DE20E94160466277727CB016C1972
:100C10007D098E099F094AE00E947C028FED0E94A7
:100C200016048FE491E00E946F0281E00E940204AA
:100C300088E491E00E946F02C0906901D0906A013F
:100C4000E0906B01F0906C01A7019601C701B6011D
:100C50000E9410098823C1F081E591E00E946F0293
:100C60008FED0E9416048DE591E00E946F020E94B4
:100C70003602209709F468CF0E94F100882309F416
:100C800063CF0E94000060CF46015701E894B7F897
:100C90002FEF3FEF4FE75FE7C501B4010E94100956
:100CA00081110DC02FEF3FEF4FE75FE7C501B401A2
:100CB0000E943F0718161CF485E591E0CFCF2FEF77
:100CC0003FEF4FE75FE4C701B6010E949E08181688
:100CD0001CF489E591E0C2CF2FEF3FEF4FE75FECC7
:100CE000C701B6010E943F0787FDF3CF20E030E047
:100CF000A901C701B6010E943F0787FF07C08DE227
:100D00000E941604F7FAF094F7F8F0942AE037ED11
:100D100043EA5BE3C701B6010E94D3064B015C01C5
:100D20000E94BD076B017C010E94EC079B01AC0196
:100D3000C501B4010E94D2064B015C014AE0C70123
:100D4000B6010E947C028EE20E94160420E030E090
:100D500040E251E4C501B4010E94A3084B015C01CB
:100D60000E94BD076B01F12CE12C4AE0C701B601DE
:100D70000E947C02C701B6010E94EC079B01AC01F6
:100D8000C501B4010E94D20620E030E040E251E407
:100D90000E94A3080E94BD0790E080E04AE00E9404
:100DA0007C025ECF5058BB27AA270E94EA060C940B
:100DB00064080E94560838F00E945D0820F039F45B
:100DC0009F3F19F426F40C9453080EF4E095E7FBCA
:100DD0000C944D08E92F0E94750858F3BA17620762
:100DE00073078407950720F079F4A6F50C9497080B
:100DF0000EF4E0950B2EBA2FA02D0B01B901900136
:100E00000C01CA01A0011124FF27591B99F0593F79
:100E100050F4503E68F11A16F040A22F232F342FC1
:100E20004427585FF3CF469537952795A795F0400F
:100E30005395C9F77EF41F16BA0B620B730B840B24
:100E4000BAF09150A1F0FF0FBB1F661F771F881FDC
:100E5000C2F70EC0BA0F621F731F841F48F4879534
:100E600077956795B795F7959E3F08F0B0CF939526
:100E7000880F08F09927EE0F9795879508950E949F
:100E8000290808F481E008950E9458070C9464082A
:100E90000E945D0858F00E94560840F029F45F3F18
:100EA00029F00C944D0851110C9498080C94530897
:100EB0000E94750868F39923B1F3552391F3951BAC
:100EC000550BBB27AA2762177307840738F09F5F6B
:100ED0005F4F220F331F441FAA1FA9F335D00E2ED8
:100EE0003AF0E0E832D091505040E695001CCAF745
:100EF0002BD0FE2F29D0660F771F881FBB1F261708
:100F000037074807AB07B0E809F0BB0B802DBF01DE
:100F1000FF2793585F4F3AF09E3F510578F00C94AD
:100F20004D080C9498085F3FE4F3983ED4F38695FF
:100F300077956795B795F7959F5FC9F7880F911DCE
:100F40009695879597F90895E1E0660F771F881FBA
:100F5000BB1F621773078407BA0720F0621B730B6D
:100F6000840BBA0BEE1F88F7E09508950E94BD0729
:100F70006894B1110C94980808950E947D0888F037
:100F80009F5798F0B92F9927B751B0F0E1F0660F4D
:100F9000771F881F991F1AF0BA95C9F714C0B1308E
:100FA00091F00E949708B1E008950C949708672F7C
:100FB000782F8827B85F39F0B93FCCF386957795BD
:100FC0006795B395D9F73EF49095809570956195A6
:100FD0007F4F8F4F9F4F0895E89409C097FB3EF4D1
:100FE00090958095709561957F4F8F4F9F4F992376
:100FF000A9F0F92F96E9BB279395F69587957795F4
:101000006795B795F111F8CFFAF4BB0F11F460FFB3
:101010001BC06F5F7F4F8F4F9F4F16C0882311F00B
:1010200096E911C0772321F09EE8872F762F05C01F
:10103000662371F096E8862F70E060E02AF09A95BA
:10104000660F771F881FDAF7880F9695879597F9AF
:101050000895990F0008550FAA0BE0E8FEEF161649
:101060001706E807F907C0F012161306E407F5079C
:1010700098F0621B730B840B950B39F40A2661F010
:10108000232B242B252B21F408950A2609F4A140B3
:10109000A6958FEF811D811D089597F99F6780E8C0
:1010A00070E060E008959FEF80EC089500240A94BA
:1010B0001616170618060906089500240A94121633
:1010C0001306140605060895092E0394000C11F466
:1010D000882352F0BB0F40F4BF2B11F460FF04C013
:1010E0006F5F7F4F8F4F9F4F089557FD9058440F6C
:1010F000551F59F05F3F71F04795880F97FB991F77
:1011000061F09F3F79F08795089512161306140633
:10111000551FF2CF4695F1DF08C0161617061806C0
:10112000991FF1CF86957105610508940895E8949B
:10113000BB2766277727CB0197F908950E942908D6
:1011400008F48FEF08950E94B6080C9464080E947A
:10115000560838F00E945D0820F0952311F00C9499
:101160004D080C94530811240C9498080E9475089B
:1011700070F3959FC1F3950F50E0551F629FF001EA
:10118000729FBB27F00DB11D639FAA27F00DB11D03
:10119000AA1F649F6627B00DA11D661F829F22278C
:1011A000B00DA11D621F739FB00DA11D621F839F13
:1011B000A00D611D221F749F3327A00D611D231FE9
:1011C000849F600D211D822F762F6A2F11249F5737
:1011D00050409AF0F1F088234AF0EE0FFF1FBB1F3A
:1011E000661F771F881F91505040A9F79E3F5105F9
:1011F00080F00C944D080C9498085F3FE4F3983EFF
:10120000D4F3869577956795B795F795E7959F5FA2
:10121000C1F7FE2B880F911D9695879597F9089534
:101220000E942908880B990B0895A1E21A2EAA1B87
:10123000BB1BFD010DC0AA1FBB1FEE1FFF1FA21786
:10124000B307E407F50720F0A21BB30BE40BF50B83
:10125000661F771F881F991F1A9469F7609570950C
:10126000809590959B01AC01BD01CF010895EE0FD3
:10127000FF1F0590F491E02D0994F894FFCF000032
:10128000000027018700B4007401E500C300D70007
:1012900000000000100487006C026B024172677945
:1012A0006120416E696E647961204D61676866698D
:1012B00072726964686F00303131313139343030E5
:1012C000303030313200537568753D200043006E78
:0E12D000616E00696E66006F76660046000073
:107E0000112484B714BE81FFF0D085E080938100F7
:107E100082E08093C00088E18093C10086E0809377
:107E2000C20080E18093C4008EE0C9D0259A86E02C
:107E300020E33CEF91E0309385002093840096BBD3
:107E4000B09BFECF1D9AA8958150A9F7CC24DD24C4
:107E500088248394B5E0AB2EA1E19A2EF3E0BF2EE7
:107E6000A2D0813461F49FD0082FAFD0023811F036
:107E7000013811F484E001C083E08DD089C08234E0
:107E800011F484E103C0853419F485E0A6D080C0E4
:107E9000853579F488D0E82EFF2485D0082F10E0AE
:107EA000102F00270E291F29000F111F8ED06801E7
:107EB0006FC0863521F484E090D080E0DECF843638
:107EC00009F040C070D06FD0082F6DD080E0C81688
:107ED00080E7D80618F4F601B7BEE895C0E0D1E017
:107EE00062D089930C17E1F7F0E0CF16F0E7DF06D8
:107EF00018F0F601B7BEE89568D007B600FCFDCFD4
:107F0000A601A0E0B1E02C9130E011968C91119780
:107F100090E0982F8827822B932B1296FA010C0160
:107F200087BEE89511244E5F5F4FF1E0A038BF0790
:107F300051F7F601A7BEE89507B600FCFDCF97BE46
:107F4000E89526C08437B1F42ED02DD0F82E2BD052
:107F50003CD0F601EF2C8F010F5F1F4F84911BD097
:107F6000EA94F801C1F70894C11CD11CFA94CF0C13
:107F7000D11C0EC0853739F428D08EE10CD085E9AC
:107F80000AD08FE07ACF813511F488E018D01DD067
:107F900080E101D065CF982F8091C00085FFFCCF94
:107FA0009093C60008958091C00087FFFCCF809118
:107FB000C00084FD01C0A8958091C6000895E0E648
:107FC000F0E098E1908380830895EDDF803219F02E
:107FD00088E0F5DFFFCF84E1DECF1F93182FE3DFCA
:107FE0001150E9F7F2DF1F91089580E0E8DFEE27F6
:047FF000FF270994CA
:027FFE00040479
:00000001FF
